:100000000C9462000C948A000C948A000C948A0070
:100010000C948A000C948A000C948A000C948A0038
:100020000C948A000C948A000C948A000C948A0028
:100030000C948A000C948A000C948A000C948A0018
:100040000C940D030C948A000C947D030C945703BC
:100050000C948A000C948A000C948A000C948A00F8
:100060000C948A000C948A000000000024002700F1
:100070002A0000000000250028002B0000000000DE
:1000800023002600290004040404040404040202DA
:100090000202020203030303030301020408102007
:1000A0004080010204081020010204081020000012
:1000B0000008000201000003040700000000000027
:1000C0000000100511241FBECFEFD8E0DEBFCDBF6A
:1000D00011E0A0E0B1E0E4E9FAE002C005900D9281
:1000E000AA33B107D9F721E0AAE3B1E001C01D921C
:1000F000A93EB207E1F710E0C2E6D0E004C02197C4
:10010000FE010E943D05C136D107C9F70E94AF0329
:100110000C9448050C940000833081F028F4813061
:1001200099F08230A1F008958730A9F08830B9F0B5
:100130008430D1F4809180008F7D03C08091800055
:100140008F7780938000089584B58F7702C084B53F
:100150008F7D84BD08958091B0008F7703C080911A
:10016000B0008F7D8093B0000895CF93DF93282F48
:1001700030E0F901E255FF4F8491F901E656FF4F57
:10018000D491F901EA57FF4FC491CC2391F081112A
:100190000E948C00EC2FF0E0EE0FFF1FE458FF4FA1
:1001A000A591B491EC91ED2381E090E021F480E001
:1001B00002C080E090E0DF91CF9108951F93CF932C
:1001C000DF93282F30E0F901E255FF4F8491F901C8
:1001D000E656FF4FD491F901EA57FF4FC491CC2363
:1001E000C9F0162F81110E948C00EC2FF0E0EE0F69
:1001F000FF1FEE58FF4FA591B4918FB7F8941111DE
:1002000005C09C91ED2FE095E92302C0EC91ED2B08
:10021000EC938FBFDF91CF911F910895CF93DF9320
:1002200090E0FC01E656FF4F2491FC01EA57FF4F96
:100230008491882361F190E0880F991FFC01E859AF
:10024000FF4FC591D491FC01EE58FF4FA591B49199
:10025000611109C09FB7F894888120958223888313
:10026000EC912E230BC0623061F49FB7F894388173
:10027000822F809583238883EC912E2B2C939FBF14
:1002800006C08FB7F894E8812E2B28838FBFDF91AB
:10029000CF9108953FB7F8948091E5019091E601E0
:1002A000A091E701B091E80126B5A89B05C02F3FBA
:1002B00019F00196A11DB11D3FBFBA2FA92F982F8C
:1002C0008827820F911DA11DB11DBC01CD0142E007
:1002D000660F771F881F991F4A95D1F70895CF920F
:1002E000DF92EF92FF920F931F93CF93DF936C01F6
:1002F0007A018B01C0E0D0E0CE15DF0589F0D8018E
:100300006D918D01D601ED91FC910190F081E02D70
:10031000C6010995892B11F47E0102C02196ECCF0C
:10032000C701DF91CF911F910F91FF90EF90DF9068
:10033000CF900895089580E090E00895FC01538DDA
:10034000448D252F30E0842F90E0821B930B5417AF
:1003500010F0CF96089501970895FC01918D828D3C
:10036000981761F0828DDF01A80FB11D5D968C9109
:10037000928D9F5F9F73928F90E008958FEF9FEF14
:100380000895FC01918D828D981731F0828DE80FD0
:10039000F11D858D90E008958FEF9FEF0895FC018A
:1003A000918D228D892F90E0805C9F4F821B910957
:1003B0008F73992708958AE391E00E94CF0121E08D
:1003C000892B09F420E0822F0895FC01848DDF0140
:1003D000A80FB11DA35ABF4F2C91848D90E00196B8
:1003E0008F739927848FA689B7892C93A089B189A7
:1003F0008C9180648C93938D848D981306C00288B1
:10040000F389E02D80818F7D80830895EF92FF92A4
:100410000F931F93CF93DF93EC0181E0888F9B8D27
:100420008C8D981305C0E889F989808185FD24C0E9
:10043000F62E0B8D10E00F5F1F4F0F731127E02E6C
:100440008C8DE8120CC00FB607FCFACFE889F98949
:10045000808185FFF5CFCE010E94E501F1CF8B8D24
:10046000FE01E80FF11DE35AFF4FF0820B8FEA897E
:10047000FB898081806207C0EE89FF896083E889FB
:10048000F98980818064808381E090E0DF91CF9161
:100490001F910F91FF90EF900895CF93DF93EC01A0
:1004A000888D8823C9F0EA89FB89808185FD05C094
:1004B000A889B9898C9186FD0FC00FB607FCF5CFCE
:1004C000808185FFF2CFA889B9898C9185FFEDCF16
:1004D000CE010E94E501E7CFDF91CF91089580E042
:1004E00090E0892B29F00E94DB0181110C9400001F
:1004F00008950F931F93CF93DF93CAE1D1E002E1F8
:1005000011E08881229660E00E94DE00F80180817F
:100510000E5F1F4F60E00E94DE00F1E0C232DF0795
:1005200081F7C091D701D091D801C330D10541F1F5
:1005300074F4C130D105E9F0C230D10509F049C0E9
:1005400061E08AE00E94DE0061E085E035C0C530F0
:10055000D10561F104F1C630D105D9F561E089E03A
:100560000E94DE0061E085E00E94DE0061E084E040
:1005700028C061E08BE00E94DE0061E085E011C0F0
:1005800061E089E00E94DE0061E088E00E94DE0018
:1005900061E085E016C061E089E00E94DE0061E074
:1005A00087E00E94DE0080E797E10FC061E089E00C
:1005B0000E94DE0061E086E00E94DE0080ED97E0B0
:1005C00004C00E94DE0088EB9BE09093DB018093E7
:1005D000DA018091D901882341F02296D093D80185
:1005E000C093D7011092D90105C02196D093D801AC
:1005F000C093D7018091D7019091D801079734F02B
:1006000081E090E09093D8018093D701DF91CF9162
:100610001F910F9108950E9443051F920F920FB6EC
:100620000F9211242F933F938F939F93AF93BF9378
:100630008091E1019091E201A091E301B091E40188
:100640003091E00123E0230F2D3720F40196A11D06
:10065000B11D05C026E8230F0296A11DB11D2093F0
:10066000E0018093E1019093E201A093E301B09354
:10067000E4018091E5019091E601A091E701B0913C
:10068000E8010196A11DB11D8093E5019093E6015B
:10069000A093E701B093E801BF91AF919F918F9133
:1006A0003F912F910F900FBE0F901F9018951F92A2
:1006B0000F920FB60F9211242F933F934F935F9396
:1006C0006F937F938F939F93AF93BF93EF93FF931A
:1006D0008AE391E00E94E501FF91EF91BF91AF9114
:1006E0009F918F917F916F915F914F913F912F914A
:1006F0000F900FBE0F901F9018951F920F920FB67C
:100700000F9211242F938F939F93EF93FF93E09178
:100710004A01F0914B018081E0915001F09151012B
:1007200082FD12C09081809153018F5F8F73209161
:100730005401821751F0E0915301F0E0E65CFE4F66
:10074000958F8093530101C08081FF91EF919F911C
:100750008F912F910F900FBE0F901F901895789446
:1007600084B5826084BD84B5816084BD85B58260B6
:1007700085BD85B5816085BD80916E008160809367
:100780006E001092810080918100826080938100D0
:1007900080918100816080938100809180008160E0
:1007A000809380008091B10084608093B10080913B
:1007B000B00081608093B00080917A008460809363
:1007C0007A0080917A00826080937A0080917A002A
:1007D000816080937A0080917A00806880937A00AB
:1007E0001092C100CAE1D1E002E111E088812296B5
:1007F00061E00E940E01F80180810E5F1F4F61E0F1
:100800000E940E01F1E0C232DF0781F762E08DE065
:100810000E940E0162E082E00E940E01E0914A0116
:10082000F0914B0182E08083E0914601F091470115
:100830001082E0914801F09149018FEC8083109281
:100840005201E0914E01F0914F0186E08083E091EA
:100850004C01F0914D01808180618083E0914C01D9
:10086000F0914D01808188608083E0914C01F0918E
:100870004D01808180688083E0914C01F0914D01B1
:1008800080818F7D808344E150E062E271E08AE301
:1008900091E00E946F0142E050E067E371E08AE37B
:1008A00091E00E946F0181E090E09093D8018093E5
:1008B000D7010E94790211E0C6E0D0E08FB7F8942A
:1008C0004091E1015091E2016091E3017091E401F6
:1008D0008FBF8091DC019091DD01A091DE01B0918C
:1008E000DF01481B590B6A0B7B0B8091DA01909159
:1008F000DB01092E000CAA0BBB0B84179507A6077A
:10090000B707A8F40E9479022FB7F8948091E1010B
:100910009091E201A091E301B091E4012FBF809397
:10092000DC019093DD01A093DE01B093DF018DE047
:100930000E94B500892B31F082E00E94B500892B1E
:1009400009F05AC00E944A014B015C0188ECC82E94
:10095000D12CE12CF12C0E944A01DC01CB01881939
:100960009909AA09BB09883E9340A105B10558F031
:1009700021E0C21AD108E108F10888EE880E83E070
:10098000981EA11CB11CC114D104E104F10419F793
:100990008DE00E94B500892B91F11093D9018091CF
:1009A000D7019091D801019718161906A4F1D09398
:1009B000D801C093D7018091D7019091D80181309F
:1009C000910519F501969093D8018093D7010E9463
:1009D00079022FB7F8948091E1019091E201A09102
:1009E000E301B091E4012FBF8093DC019093DD011E
:1009F000A093DE01B093DF010E946F025FCF82E01F
:100A00000E94B500892B21F2C8CF84309105D1F224
:100A10001092D901DECF9093D8018093D701CBCF2C
:100A2000EAE3F1E01382128288EE93E0A0E0B0E006
:100A300084839583A683B78384E091E09183808348
:100A400085EC90E09587848784EC90E09787868793
:100A500080EC90E0918B808B81EC90E0938B828B8B
:100A600082EC90E0958B848B86EC90E0978B868B64
:100A7000118E128E138E148E0895EE0FFF1F0590A7
:100A8000F491E02D099481E090E0F8940C944805ED
:040A9000F894FFCF08
:100A94000000000006026F019E014D02CF01AD016E
:100AA400C10107000600050004000B000A0009004C
:100AB40008004465736166C3AD6F202331202D2087
:0A0AC400506C61747A69000D0A009D
:00000001FF
